{
  "_format": "hh-sol-artifact-1",
  "contractName": "SwiftClaim",
  "sourceName": "contracts/SwiftClaim.sol",
  "abi": [
    {
      "inputs": [],
      "stateMutability": "nonpayable",
      "type": "constructor"
    },
    {
      "anonymous": false,
      "inputs": [
        {
          "indexed": true,
          "internalType": "address",
          "name": "admin",
          "type": "address"
        }
      ],
      "name": "AdminAdded",
      "type": "event"
    },
    {
      "anonymous": false,
      "inputs": [
        {
          "indexed": true,
          "internalType": "address",
          "name": "admin",
          "type": "address"
        }
      ],
      "name": "AdminRemoved",
      "type": "event"
    },
    {
      "anonymous": false,
      "inputs": [
        {
          "indexed": true,
          "internalType": "uint256",
          "name": "claimId",
          "type": "uint256"
        },
        {
          "indexed": false,
          "internalType": "uint256",
          "name": "amount",
          "type": "uint256"
        }
      ],
      "name": "ClaimPaid",
      "type": "event"
    },
    {
      "anonymous": false,
      "inputs": [
        {
          "indexed": true,
          "internalType": "uint256",
          "name": "claimId",
          "type": "uint256"
        },
        {
          "indexed": false,
          "internalType": "enum SwiftClaim.ClaimStatus",
          "name": "status",
          "type": "uint8"
        }
      ],
      "name": "ClaimStatusChanged",
      "type": "event"
    },
    {
      "anonymous": false,
      "inputs": [
        {
          "indexed": true,
          "internalType": "uint256",
          "name": "claimId",
          "type": "uint256"
        },
        {
          "indexed": true,
          "internalType": "uint256",
          "name": "userPolicyId",
          "type": "uint256"
        },
        {
          "indexed": true,
          "internalType": "address",
          "name": "claimant",
          "type": "address"
        }
      ],
      "name": "ClaimSubmitted",
      "type": "event"
    },
    {
      "anonymous": false,
      "inputs": [
        {
          "indexed": true,
          "internalType": "uint256",
          "name": "userPolicyId",
          "type": "uint256"
        },
        {
          "indexed": true,
          "internalType": "uint256",
          "name": "templateId",
          "type": "uint256"
        },
        {
          "indexed": true,
          "internalType": "address",
          "name": "policyholder",
          "type": "address"
        }
      ],
      "name": "PolicyPurchased",
      "type": "event"
    },
    {
      "anonymous": false,
      "inputs": [
        {
          "indexed": true,
          "internalType": "uint256",
          "name": "templateId",
          "type": "uint256"
        },
        {
          "indexed": false,
          "internalType": "string",
          "name": "policyType",
          "type": "string"
        },
        {
          "indexed": false,
          "internalType": "uint256",
          "name": "premium",
          "type": "uint256"
        },
        {
          "indexed": false,
          "internalType": "uint256",
          "name": "coverageAmount",
          "type": "uint256"
        }
      ],
      "name": "PolicyTemplateAdded",
      "type": "event"
    },
    {
      "inputs": [],
      "name": "CLAIM_COOLDOWN",
      "outputs": [
        {
          "internalType": "uint256",
          "name": "",
          "type": "uint256"
        }
      ],
      "stateMutability": "view",
      "type": "function"
    },
    {
      "inputs": [
        {
          "internalType": "string",
          "name": "_policyType",
          "type": "string"
        },
        {
          "internalType": "uint256",
          "name": "_premium",
          "type": "uint256"
        },
        {
          "internalType": "uint256",
          "name": "_coverageAmount",
          "type": "uint256"
        },
        {
          "internalType": "uint256",
          "name": "_expiryDuration",
          "type": "uint256"
        },
        {
          "internalType": "string",
          "name": "_description",
          "type": "string"
        }
      ],
      "name": "addPolicyTemplate",
      "outputs": [],
      "stateMutability": "nonpayable",
      "type": "function"
    },
    {
      "inputs": [
        {
          "internalType": "uint256",
          "name": "_claimId",
          "type": "uint256"
        }
      ],
      "name": "approvePayout",
      "outputs": [],
      "stateMutability": "nonpayable",
      "type": "function"
    },
    {
      "inputs": [
        {
          "internalType": "uint256",
          "name": "_templateId",
          "type": "uint256"
        }
      ],
      "name": "buyPolicy",
      "outputs": [],
      "stateMutability": "payable",
      "type": "function"
    },
    {
      "inputs": [],
      "name": "claimCount",
      "outputs": [
        {
          "internalType": "uint256",
          "name": "",
          "type": "uint256"
        }
      ],
      "stateMutability": "view",
      "type": "function"
    },
    {
      "inputs": [
        {
          "internalType": "uint256",
          "name": "",
          "type": "uint256"
        }
      ],
      "name": "claims",
      "outputs": [
        {
          "internalType": "uint256",
          "name": "id",
          "type": "uint256"
        },
        {
          "internalType": "uint256",
          "name": "userPolicyId",
          "type": "uint256"
        },
        {
          "internalType": "address",
          "name": "claimant",
          "type": "address"
        },
        {
          "internalType": "string",
          "name": "claimType",
          "type": "string"
        },
        {
          "internalType": "uint256",
          "name": "incidentDate",
          "type": "uint256"
        },
        {
          "internalType": "string",
          "name": "description",
          "type": "string"
        },
        {
          "internalType": "string",
          "name": "metadataURI",
          "type": "string"
        },
        {
          "internalType": "enum SwiftClaim.ClaimStatus",
          "name": "status",
          "type": "uint8"
        },
        {
          "internalType": "uint256",
          "name": "timestamp",
          "type": "uint256"
        }
      ],
      "stateMutability": "view",
      "type": "function"
    },
    {
      "inputs": [
        {
          "internalType": "address",
          "name": "_user",
          "type": "address"
        }
      ],
      "name": "getUserPolicies",
      "outputs": [
        {
          "internalType": "uint256[]",
          "name": "",
          "type": "uint256[]"
        }
      ],
      "stateMutability": "view",
      "type": "function"
    },
    {
      "inputs": [
        {
          "internalType": "address",
          "name": "",
          "type": "address"
        }
      ],
      "name": "isAdmin",
      "outputs": [
        {
          "internalType": "bool",
          "name": "",
          "type": "bool"
        }
      ],
      "stateMutability": "view",
      "type": "function"
    },
    {
      "inputs": [
        {
          "internalType": "address",
          "name": "",
          "type": "address"
        }
      ],
      "name": "lastClaimTime",
      "outputs": [
        {
          "internalType": "uint256",
          "name": "",
          "type": "uint256"
        }
      ],
      "stateMutability": "view",
      "type": "function"
    },
    {
      "inputs": [],
      "name": "owner",
      "outputs": [
        {
          "internalType": "address",
          "name": "",
          "type": "address"
        }
      ],
      "stateMutability": "view",
      "type": "function"
    },
    {
      "inputs": [],
      "name": "policyTemplateCount",
      "outputs": [
        {
          "internalType": "uint256",
          "name": "",
          "type": "uint256"
        }
      ],
      "stateMutability": "view",
      "type": "function"
    },
    {
      "inputs": [
        {
          "internalType": "uint256",
          "name": "",
          "type": "uint256"
        }
      ],
      "name": "policyTemplates",
      "outputs": [
        {
          "internalType": "uint256",
          "name": "id",
          "type": "uint256"
        },
        {
          "internalType": "string",
          "name": "policyType",
          "type": "string"
        },
        {
          "internalType": "uint256",
          "name": "premium",
          "type": "uint256"
        },
        {
          "internalType": "uint256",
          "name": "coverageAmount",
          "type": "uint256"
        },
        {
          "internalType": "uint256",
          "name": "expiryDuration",
          "type": "uint256"
        },
        {
          "internalType": "string",
          "name": "description",
          "type": "string"
        },
        {
          "internalType": "bool",
          "name": "isActive",
          "type": "bool"
        }
      ],
      "stateMutability": "view",
      "type": "function"
    },
    {
      "inputs": [
        {
          "internalType": "uint256",
          "name": "_claimId",
          "type": "uint256"
        }
      ],
      "name": "rejectClaim",
      "outputs": [],
      "stateMutability": "nonpayable",
      "type": "function"
    },
    {
      "inputs": [
        {
          "internalType": "uint256",
          "name": "_claimId",
          "type": "uint256"
        }
      ],
      "name": "releasePayout",
      "outputs": [],
      "stateMutability": "nonpayable",
      "type": "function"
    },
    {
      "inputs": [
        {
          "internalType": "address",
          "name": "_admin",
          "type": "address"
        },
        {
          "internalType": "bool",
          "name": "_status",
          "type": "bool"
        }
      ],
      "name": "setAdmin",
      "outputs": [],
      "stateMutability": "nonpayable",
      "type": "function"
    },
    {
      "inputs": [
        {
          "internalType": "uint256",
          "name": "_userPolicyId",
          "type": "uint256"
        },
        {
          "internalType": "string",
          "name": "_claimType",
          "type": "string"
        },
        {
          "internalType": "uint256",
          "name": "_incidentDate",
          "type": "uint256"
        },
        {
          "internalType": "string",
          "name": "_description",
          "type": "string"
        },
        {
          "internalType": "string",
          "name": "_metadataURI",
          "type": "string"
        }
      ],
      "name": "submitClaim",
      "outputs": [],
      "stateMutability": "nonpayable",
      "type": "function"
    },
    {
      "inputs": [],
      "name": "totalPayouts",
      "outputs": [
        {
          "internalType": "uint256",
          "name": "",
          "type": "uint256"
        }
      ],
      "stateMutability": "view",
      "type": "function"
    },
    {
      "inputs": [
        {
          "internalType": "uint256",
          "name": "_templateId",
          "type": "uint256"
        },
        {
          "internalType": "uint256",
          "name": "_premium",
          "type": "uint256"
        },
        {
          "internalType": "uint256",
          "name": "_coverageAmount",
          "type": "uint256"
        },
        {
          "internalType": "uint256",
          "name": "_expiryDuration",
          "type": "uint256"
        },
        {
          "internalType": "string",
          "name": "_description",
          "type": "string"
        },
        {
          "internalType": "bool",
          "name": "_isActive",
          "type": "bool"
        }
      ],
      "name": "updatePolicyTemplate",
      "outputs": [],
      "stateMutability": "nonpayable",
      "type": "function"
    },
    {
      "inputs": [
        {
          "internalType": "uint256",
          "name": "",
          "type": "uint256"
        }
      ],
      "name": "userPolicies",
      "outputs": [
        {
          "internalType": "uint256",
          "name": "id",
          "type": "uint256"
        },
        {
          "internalType": "uint256",
          "name": "templateId",
          "type": "uint256"
        },
        {
          "internalType": "address",
          "name": "policyholder",
          "type": "address"
        },
        {
          "internalType": "uint256",
          "name": "startTime",
          "type": "uint256"
        },
        {
          "internalType": "uint256",
          "name": "expiryTime",
          "type": "uint256"
        },
        {
          "internalType": "bool",
          "name": "isActive",
          "type": "bool"
        }
      ],
      "stateMutability": "view",
      "type": "function"
    },
    {
      "inputs": [
        {
          "internalType": "address",
          "name": "",
          "type": "address"
        },
        {
          "internalType": "uint256",
          "name": "",
          "type": "uint256"
        }
      ],
      "name": "userPoliciesByAddress",
      "outputs": [
        {
          "internalType": "uint256",
          "name": "",
          "type": "uint256"
        }
      ],
      "stateMutability": "view",
      "type": "function"
    },
    {
      "inputs": [],
      "name": "userPolicyCount",
      "outputs": [
        {
          "internalType": "uint256",
          "name": "",
          "type": "uint256"
        }
      ],
      "stateMutability": "view",
      "type": "function"
    },
    {
      "inputs": [
        {
          "internalType": "uint256",
          "name": "_claimId",
          "type": "uint256"
        }
      ],
      "name": "verifyClaim",
      "outputs": [],
      "stateMutability": "nonpayable",
      "type": "function"
    },
    {
      "stateMutability": "payable",
      "type": "receive"
    }
  ],
  "bytecode": "0x6080604052348015600f57600080fd5b50336000806101000a81548173ffffffffffffffffffffffffffffffffffffffff021916908373ffffffffffffffffffffffffffffffffffffffff16021790555060018060003373ffffffffffffffffffffffffffffffffffffffff1673ffffffffffffffffffffffffffffffffffffffff16815260200190815260200160002060006101000a81548160ff02191690831515021790555061372a806100b66000396000f3fe6080604052600436106101395760003560e01c806379c88894116100ab578063b77cf9c61161006f578063b77cf9c614610432578063bf43e8561461046f578063c0d7e2b614610498578063cba85f06146104c1578063dc8d418614610503578063edcd430f1461054057610140565b806379c88894146103505780638da4d3c91461036c5780638da5cb5b14610397578063a888c2cd146103c2578063b31abc7d1461040757610140565b806337c909ec116100fd57806337c909ec14610256578063392c9725146102815780634089b170146102aa5780634b0bddd2146102d557806351e9c42b146102fe5780636e388c961461032757610140565b8063088b6d621461014557806319ac46141461017057806320341101146101ad57806324d7806c146101d65780633147b2cc1461021357610140565b3661014057005b600080fd5b34801561015157600080fd5b5061015a610569565b6040516101679190612300565b60405180910390f35b34801561017c57600080fd5b506101976004803603810190610192919061238d565b61056f565b6040516101a49190612478565b60405180910390f35b3480156101b957600080fd5b506101d460048036038101906101cf91906124c6565b610606565b005b3480156101e257600080fd5b506101fd60048036038101906101f8919061238d565b610821565b60405161020a919061250e565b60405180910390f35b34801561021f57600080fd5b5061023a600480360381019061023591906124c6565b610841565b60405161024d97969594939291906125b9565b60405180910390f35b34801561026257600080fd5b5061026b6109a0565b6040516102789190612300565b60405180910390f35b34801561028d57600080fd5b506102a860048036038101906102a39190612797565b6109a7565b005b3480156102b657600080fd5b506102bf610b43565b6040516102cc9190612300565b60405180910390f35b3480156102e157600080fd5b506102fc60048036038101906102f79190612840565b610b49565b005b34801561030a57600080fd5b50610325600480360381019061032091906124c6565b610cc4565b005b34801561033357600080fd5b5061034e60048036038101906103499190612880565b610e9f565b005b61036a600480360381019061036591906124c6565b6110a2565b005b34801561037857600080fd5b506103816114cf565b60405161038e9190612300565b60405180910390f35b3480156103a357600080fd5b506103ac6114d5565b6040516103b99190612942565b60405180910390f35b3480156103ce57600080fd5b506103e960048036038101906103e491906124c6565b6114f9565b6040516103fe999897969594939291906129d4565b60405180910390f35b34801561041357600080fd5b5061041c61170c565b6040516104299190612300565b60405180910390f35b34801561043e57600080fd5b506104596004803603810190610454919061238d565b611712565b6040516104669190612300565b60405180910390f35b34801561047b57600080fd5b50610496600480360381019061049191906124c6565b61172a565b005b3480156104a457600080fd5b506104bf60048036038101906104ba91906124c6565b611c41565b005b3480156104cd57600080fd5b506104e860048036038101906104e391906124c6565b611e1c565b6040516104fa96959493929190612a76565b60405180910390f35b34801561050f57600080fd5b5061052a60048036038101906105259190612ad7565b611e85565b6040516105379190612300565b60405180910390f35b34801561054c57600080fd5b5061056760048036038101906105629190612b17565b611eb6565b005b60025481565b6060600860008373ffffffffffffffffffffffffffffffffffffffff1673ffffffffffffffffffffffffffffffffffffffff1681526020019081526020016000208054806020026020016040519081016040528092919081815260200182805480156105fa57602002820191906000526020600020905b8154815260200190600101908083116105e6575b50505050509050919050565b600160003373ffffffffffffffffffffffffffffffffffffffff1673ffffffffffffffffffffffffffffffffffffffff16815260200190815260200160002060009054906101000a900460ff16806106a9575060008054906101000a900473ffffffffffffffffffffffffffffffffffffffff1673ffffffffffffffffffffffffffffffffffffffff163373ffffffffffffffffffffffffffffffffffffffff16145b6106e8576040517f08c379a00000000000000000000000000000000000000000000000000000000081526004016106df90612c32565b60405180910390fd5b6000600960008381526020019081526020016000209050600060048111156107135761071261295d565b5b8160070160009054906101000a900460ff1660048111156107375761073661295d565b5b14806107785750600160048111156107525761075161295d565b5b8160070160009054906101000a900460ff1660048111156107765761077561295d565b5b145b6107b7576040517f08c379a00000000000000000000000000000000000000000000000000000000081526004016107ae90612c9e565b60405180910390fd5b60028160070160006101000a81548160ff021916908360048111156107df576107de61295d565b5b0217905550817f37dd038eef9398a895f8a99118d04d1fd1864770c92d81956cce6b9da7decdeb60026040516108159190612cbe565b60405180910390a25050565b60016020528060005260406000206000915054906101000a900460ff1681565b600660205280600052604060002060009150905080600001549080600101805461086a90612d08565b80601f016020809104026020016040519081016040528092919081815260200182805461089690612d08565b80156108e35780601f106108b8576101008083540402835291602001916108e3565b820191906000526020600020905b8154815290600101906020018083116108c657829003601f168201915b50505050509080600201549080600301549080600401549080600501805461090a90612d08565b80601f016020809104026020016040519081016040528092919081815260200182805461093690612d08565b80156109835780601f1061095857610100808354040283529160200191610983565b820191906000526020600020905b81548152906001019060200180831161096657829003601f168201915b5050505050908060060160009054906101000a900460ff16905087565b6201518081565b600160003373ffffffffffffffffffffffffffffffffffffffff1673ffffffffffffffffffffffffffffffffffffffff16815260200190815260200160002060009054906101000a900460ff1680610a4a575060008054906101000a900473ffffffffffffffffffffffffffffffffffffffff1673ffffffffffffffffffffffffffffffffffffffff163373ffffffffffffffffffffffffffffffffffffffff16145b610a89576040517f08c379a0000000000000000000000000000000000000000000000000000000008152600401610a8090612c32565b60405180910390fd5b600086118015610a9b57506002548611155b610ada576040517f08c379a0000000000000000000000000000000000000000000000000000000008152600401610ad190612d85565b60405180910390fd5b600060066000888152602001908152602001600020905085816002018190555084816003018190555083816004018190555082816005019081610b1d9190612f51565b50818160060160006101000a81548160ff02191690831515021790555050505050505050565b60055481565b60008054906101000a900473ffffffffffffffffffffffffffffffffffffffff1673ffffffffffffffffffffffffffffffffffffffff163373ffffffffffffffffffffffffffffffffffffffff1614610bd7576040517f08c379a0000000000000000000000000000000000000000000000000000000008152600401610bce9061306f565b60405180910390fd5b80600160008473ffffffffffffffffffffffffffffffffffffffff1673ffffffffffffffffffffffffffffffffffffffff16815260200190815260200160002060006101000a81548160ff0219169083151502179055508015610c7c578173ffffffffffffffffffffffffffffffffffffffff167f44d6d25963f097ad14f29f06854a01f575648a1ef82f30e562ccd3889717e33960405160405180910390a2610cc0565b8173ffffffffffffffffffffffffffffffffffffffff167fa3b62bc36326052d97ea62d63c3d60308ed4c3ea8ac079dd8499f1e9c4f80c0f60405160405180910390a25b5050565b600160003373ffffffffffffffffffffffffffffffffffffffff1673ffffffffffffffffffffffffffffffffffffffff16815260200190815260200160002060009054906101000a900460ff1680610d67575060008054906101000a900473ffffffffffffffffffffffffffffffffffffffff1673ffffffffffffffffffffffffffffffffffffffff163373ffffffffffffffffffffffffffffffffffffffff16145b610da6576040517f08c379a0000000000000000000000000000000000000000000000000000000008152600401610d9d90612c32565b60405180910390fd5b600060096000838152602001908152602001600020905060016004811115610dd157610dd061295d565b5b8160070160009054906101000a900460ff166004811115610df557610df461295d565b5b14610e35576040517f08c379a0000000000000000000000000000000000000000000000000000000008152600401610e2c906130db565b60405180910390fd5b60038160070160006101000a81548160ff02191690836004811115610e5d57610e5c61295d565b5b0217905550817f37dd038eef9398a895f8a99118d04d1fd1864770c92d81956cce6b9da7decdeb6003604051610e939190612cbe565b60405180910390a25050565b600160003373ffffffffffffffffffffffffffffffffffffffff1673ffffffffffffffffffffffffffffffffffffffff16815260200190815260200160002060009054906101000a900460ff1680610f42575060008054906101000a900473ffffffffffffffffffffffffffffffffffffffff1673ffffffffffffffffffffffffffffffffffffffff163373ffffffffffffffffffffffffffffffffffffffff16145b610f81576040517f08c379a0000000000000000000000000000000000000000000000000000000008152600401610f7890612c32565b60405180910390fd5b60026000815480929190610f949061312a565b91905055506040518060e001604052806002548152602001868152602001858152602001848152602001838152602001828152602001600115158152506006600060025481526020019081526020016000206000820151816000015560208201518160010190816110059190612f51565b5060408201518160020155606082015181600301556080820151816004015560a08201518160050190816110399190612f51565b5060c08201518160060160006101000a81548160ff0219169083151502179055509050506002547fb4d356853995984af0197ec3fbca0a5c21dcc3a843b44a641d188723afbbd05986868660405161109393929190613172565b60405180910390a25050505050565b6000811180156110b457506002548111155b6110f3576040517f08c379a00000000000000000000000000000000000000000000000000000000081526004016110ea90612d85565b60405180910390fd5b6000600660008381526020019081526020016000206040518060e00160405290816000820154815260200160018201805461112d90612d08565b80601f016020809104026020016040519081016040528092919081815260200182805461115990612d08565b80156111a65780601f1061117b576101008083540402835291602001916111a6565b820191906000526020600020905b81548152906001019060200180831161118957829003601f168201915b505050505081526020016002820154815260200160038201548152602001600482015481526020016005820180546111dd90612d08565b80601f016020809104026020016040519081016040528092919081815260200182805461120990612d08565b80156112565780601f1061122b57610100808354040283529160200191611256565b820191906000526020600020905b81548152906001019060200180831161123957829003601f168201915b505050505081526020016006820160009054906101000a900460ff16151515158152505090508060c001516112c0576040517f08c379a00000000000000000000000000000000000000000000000000000000081526004016112b7906131fc565b60405180910390fd5b80604001513414611306576040517f08c379a00000000000000000000000000000000000000000000000000000000081526004016112fd90613268565b60405180910390fd5b600360008154809291906113199061312a565b91905055506040518060c0016040528060035481526020018381526020013373ffffffffffffffffffffffffffffffffffffffff1681526020014281526020018260800151426113699190613288565b815260200160011515815250600760006003548152602001908152602001600020600082015181600001556020820151816001015560408201518160020160006101000a81548173ffffffffffffffffffffffffffffffffffffffff021916908373ffffffffffffffffffffffffffffffffffffffff160217905550606082015181600301556080820151816004015560a08201518160050160006101000a81548160ff021916908315150217905550905050600860003373ffffffffffffffffffffffffffffffffffffffff1673ffffffffffffffffffffffffffffffffffffffff16815260200190815260200160002060035490806001815401808255809150506001900390600052602060002001600090919091909150553373ffffffffffffffffffffffffffffffffffffffff16826003547fa1e004b771d2bfa9498a1f952d363a2b88201b708e272e7bdd675dfa7941e36560405160405180910390a45050565b60045481565b60008054906101000a900473ffffffffffffffffffffffffffffffffffffffff1681565b60096020528060005260406000206000915090508060000154908060010154908060020160009054906101000a900473ffffffffffffffffffffffffffffffffffffffff169080600301805461154e90612d08565b80601f016020809104026020016040519081016040528092919081815260200182805461157a90612d08565b80156115c75780601f1061159c576101008083540402835291602001916115c7565b820191906000526020600020905b8154815290600101906020018083116115aa57829003601f168201915b5050505050908060040154908060050180546115e290612d08565b80601f016020809104026020016040519081016040528092919081815260200182805461160e90612d08565b801561165b5780601f106116305761010080835404028352916020019161165b565b820191906000526020600020905b81548152906001019060200180831161163e57829003601f168201915b50505050509080600601805461167090612d08565b80601f016020809104026020016040519081016040528092919081815260200182805461169c90612d08565b80156116e95780601f106116be576101008083540402835291602001916116e9565b820191906000526020600020905b8154815290600101906020018083116116cc57829003601f168201915b5050505050908060070160009054906101000a900460ff16908060080154905089565b60035481565b600a6020528060005260406000206000915090505481565b600160003373ffffffffffffffffffffffffffffffffffffffff1673ffffffffffffffffffffffffffffffffffffffff16815260200190815260200160002060009054906101000a900460ff16806117cd575060008054906101000a900473ffffffffffffffffffffffffffffffffffffffff1673ffffffffffffffffffffffffffffffffffffffff163373ffffffffffffffffffffffffffffffffffffffff16145b61180c576040517f08c379a000000000000000000000000000000000000000000000000000000000815260040161180390612c32565b60405180910390fd5b6000600960008381526020019081526020016000209050600360048111156118375761183661295d565b5b8160070160009054906101000a900460ff16600481111561185b5761185a61295d565b5b1461189b576040517f08c379a000000000000000000000000000000000000000000000000000000000815260040161189290613308565b60405180910390fd5b600060076000836001015481526020019081526020016000209050600060066000836001015481526020019081526020016000206040518060e0016040529081600082015481526020016001820180546118f490612d08565b80601f016020809104026020016040519081016040528092919081815260200182805461192090612d08565b801561196d5780601f106119425761010080835404028352916020019161196d565b820191906000526020600020905b81548152906001019060200180831161195057829003601f168201915b505050505081526020016002820154815260200160038201548152602001600482015481526020016005820180546119a490612d08565b80601f01602080910402602001604051908101604052809291908181526020018280546119d090612d08565b8015611a1d5780601f106119f257610100808354040283529160200191611a1d565b820191906000526020600020905b815481529060010190602001808311611a0057829003601f168201915b505050505081526020016006820160009054906101000a900460ff16151515158152505090508060600151471015611a8a576040517f08c379a0000000000000000000000000000000000000000000000000000000008152600401611a8190613374565b60405180910390fd5b60048360070160006101000a81548160ff02191690836004811115611ab257611ab161295d565b5b021790555060008260050160006101000a81548160ff021916908315150217905550806060015160056000828254611aea9190613288565b9250508190555060008360020160009054906101000a900473ffffffffffffffffffffffffffffffffffffffff1673ffffffffffffffffffffffffffffffffffffffff168260600151604051611b3f906133c5565b60006040518083038185875af1925050503d8060008114611b7c576040519150601f19603f3d011682016040523d82523d6000602084013e611b81565b606091505b5050905080611bc5576040517f08c379a0000000000000000000000000000000000000000000000000000000008152600401611bbc90613426565b60405180910390fd5b847f37dd038eef9398a895f8a99118d04d1fd1864770c92d81956cce6b9da7decdeb6004604051611bf69190612cbe565b60405180910390a2847fb0727183796e52c5bb00a257c1eb36d8e94dbee5d6d87e259287e3372ae39ace8360600151604051611c329190612300565b60405180910390a25050505050565b600160003373ffffffffffffffffffffffffffffffffffffffff1673ffffffffffffffffffffffffffffffffffffffff16815260200190815260200160002060009054906101000a900460ff1680611ce4575060008054906101000a900473ffffffffffffffffffffffffffffffffffffffff1673ffffffffffffffffffffffffffffffffffffffff163373ffffffffffffffffffffffffffffffffffffffff16145b611d23576040517f08c379a0000000000000000000000000000000000000000000000000000000008152600401611d1a90612c32565b60405180910390fd5b600060096000838152602001908152602001600020905060006004811115611d4e57611d4d61295d565b5b8160070160009054906101000a900460ff166004811115611d7257611d7161295d565b5b14611db2576040517f08c379a0000000000000000000000000000000000000000000000000000000008152600401611da990613492565b60405180910390fd5b60018160070160006101000a81548160ff02191690836004811115611dda57611dd961295d565b5b0217905550817f37dd038eef9398a895f8a99118d04d1fd1864770c92d81956cce6b9da7decdeb6001604051611e109190612cbe565b60405180910390a25050565b60076020528060005260406000206000915090508060000154908060010154908060020160009054906101000a900473ffffffffffffffffffffffffffffffffffffffff16908060030154908060040154908060050160009054906101000a900460ff16905086565b60086020528160005260406000208181548110611ea157600080fd5b90600052602060002001600091509150505481565b600085118015611ec857506003548511155b611f07576040517f08c379a0000000000000000000000000000000000000000000000000000000008152600401611efe906134fe565b60405180910390fd5b60006007600087815260200190815260200160002090503373ffffffffffffffffffffffffffffffffffffffff168160020160009054906101000a900473ffffffffffffffffffffffffffffffffffffffff1673ffffffffffffffffffffffffffffffffffffffff1614611fb0576040517f08c379a0000000000000000000000000000000000000000000000000000000008152600401611fa79061356a565b60405180910390fd5b8060050160009054906101000a900460ff16612001576040517f08c379a0000000000000000000000000000000000000000000000000000000008152600401611ff8906135d6565b60405180910390fd5b8060040154421115612048576040517f08c379a000000000000000000000000000000000000000000000000000000000815260040161203f90613642565b60405180910390fd5b62015180600a60003373ffffffffffffffffffffffffffffffffffffffff1673ffffffffffffffffffffffffffffffffffffffff168152602001908152602001600020546120969190613288565b42116120d7576040517f08c379a00000000000000000000000000000000000000000000000000000000081526004016120ce906136d4565b60405180910390fd5b42600a60003373ffffffffffffffffffffffffffffffffffffffff1673ffffffffffffffffffffffffffffffffffffffff168152602001908152602001600020819055506004600081548092919061212e9061312a565b919050555060405180610120016040528060045481526020018781526020013373ffffffffffffffffffffffffffffffffffffffff168152602001868152602001858152602001848152602001838152602001600060048111156121955761219461295d565b5b815260200142815250600960006004548152602001908152602001600020600082015181600001556020820151816001015560408201518160020160006101000a81548173ffffffffffffffffffffffffffffffffffffffff021916908373ffffffffffffffffffffffffffffffffffffffff16021790555060608201518160030190816122239190612f51565b506080820151816004015560a08201518160050190816122439190612f51565b5060c08201518160060190816122599190612f51565b5060e08201518160070160006101000a81548160ff021916908360048111156122855761228461295d565b5b021790555061010082015181600801559050503373ffffffffffffffffffffffffffffffffffffffff16866004547f9fe11e531030a058803617055e27f9f4768236e4322e13b9c4c09f4338e23a6860405160405180910390a4505050505050565b6000819050919050565b6122fa816122e7565b82525050565b600060208201905061231560008301846122f1565b92915050565b6000604051905090565b600080fd5b600080fd5b600073ffffffffffffffffffffffffffffffffffffffff82169050919050565b600061235a8261232f565b9050919050565b61236a8161234f565b811461237557600080fd5b50565b60008135905061238781612361565b92915050565b6000602082840312156123a3576123a2612325565b5b60006123b184828501612378565b91505092915050565b600081519050919050565b600082825260208201905092915050565b6000819050602082019050919050565b6123ef816122e7565b82525050565b600061240183836123e6565b60208301905092915050565b6000602082019050919050565b6000612425826123ba565b61242f81856123c5565b935061243a836123d6565b8060005b8381101561246b57815161245288826123f5565b975061245d8361240d565b92505060018101905061243e565b5085935050505092915050565b60006020820190508181036000830152612492818461241a565b905092915050565b6124a3816122e7565b81146124ae57600080fd5b50565b6000813590506124c08161249a565b92915050565b6000602082840312156124dc576124db612325565b5b60006124ea848285016124b1565b91505092915050565b60008115159050919050565b612508816124f3565b82525050565b600060208201905061252360008301846124ff565b92915050565b600081519050919050565b600082825260208201905092915050565b60005b83811015612563578082015181840152602081019050612548565b60008484015250505050565b6000601f19601f8301169050919050565b600061258b82612529565b6125958185612534565b93506125a5818560208601612545565b6125ae8161256f565b840191505092915050565b600060e0820190506125ce600083018a6122f1565b81810360208301526125e08189612580565b90506125ef60408301886122f1565b6125fc60608301876122f1565b61260960808301866122f1565b81810360a083015261261b8185612580565b905061262a60c08301846124ff565b98975050505050505050565b600080fd5b600080fd5b7f4e487b7100000000000000000000000000000000000000000000000000000000600052604160045260246000fd5b6126788261256f565b810181811067ffffffffffffffff8211171561269757612696612640565b5b80604052505050565b60006126aa61231b565b90506126b6828261266f565b919050565b600067ffffffffffffffff8211156126d6576126d5612640565b5b6126df8261256f565b9050602081019050919050565b82818337600083830152505050565b600061270e612709846126bb565b6126a0565b90508281526020810184848401111561272a5761272961263b565b5b6127358482856126ec565b509392505050565b600082601f83011261275257612751612636565b5b81356127628482602086016126fb565b91505092915050565b612774816124f3565b811461277f57600080fd5b50565b6000813590506127918161276b565b92915050565b60008060008060008060c087890312156127b4576127b3612325565b5b60006127c289828a016124b1565b96505060206127d389828a016124b1565b95505060406127e489828a016124b1565b94505060606127f589828a016124b1565b935050608087013567ffffffffffffffff8111156128165761281561232a565b5b61282289828a0161273d565b92505060a061283389828a01612782565b9150509295509295509295565b6000806040838503121561285757612856612325565b5b600061286585828601612378565b925050602061287685828601612782565b9150509250929050565b600080600080600060a0868803121561289c5761289b612325565b5b600086013567ffffffffffffffff8111156128ba576128b961232a565b5b6128c68882890161273d565b95505060206128d7888289016124b1565b94505060406128e8888289016124b1565b93505060606128f9888289016124b1565b925050608086013567ffffffffffffffff81111561291a5761291961232a565b5b6129268882890161273d565b9150509295509295909350565b61293c8161234f565b82525050565b60006020820190506129576000830184612933565b92915050565b7f4e487b7100000000000000000000000000000000000000000000000000000000600052602160045260246000fd5b6005811061299d5761299c61295d565b5b50565b60008190506129ae8261298c565b919050565b60006129be826129a0565b9050919050565b6129ce816129b3565b82525050565b6000610120820190506129ea600083018c6122f1565b6129f7602083018b6122f1565b612a04604083018a612933565b8181036060830152612a168189612580565b9050612a2560808301886122f1565b81810360a0830152612a378187612580565b905081810360c0830152612a4b8186612580565b9050612a5a60e08301856129c5565b612a686101008301846122f1565b9a9950505050505050505050565b600060c082019050612a8b60008301896122f1565b612a9860208301886122f1565b612aa56040830187612933565b612ab260608301866122f1565b612abf60808301856122f1565b612acc60a08301846124ff565b979650505050505050565b60008060408385031215612aee57612aed612325565b5b6000612afc85828601612378565b9250506020612b0d858286016124b1565b9150509250929050565b600080600080600060a08688031215612b3357612b32612325565b5b6000612b41888289016124b1565b955050602086013567ffffffffffffffff811115612b6257612b6161232a565b5b612b6e8882890161273d565b9450506040612b7f888289016124b1565b935050606086013567ffffffffffffffff811115612ba057612b9f61232a565b5b612bac8882890161273d565b925050608086013567ffffffffffffffff811115612bcd57612bcc61232a565b5b612bd98882890161273d565b9150509295509295909350565b7f4f6e6c792061646d696e2063616e2063616c6c20746869730000000000000000600082015250565b6000612c1c601883612534565b9150612c2782612be6565b602082019050919050565b60006020820190508181036000830152612c4b81612c0f565b9050919050565b7f43616e6e6f742072656a65637400000000000000000000000000000000000000600082015250565b6000612c88600d83612534565b9150612c9382612c52565b602082019050919050565b60006020820190508181036000830152612cb781612c7b565b9050919050565b6000602082019050612cd360008301846129c5565b92915050565b7f4e487b7100000000000000000000000000000000000000000000000000000000600052602260045260246000fd5b60006002820490506001821680612d2057607f821691505b602082108103612d3357612d32612cd9565b5b50919050565b7f496e76616c69642074656d706c61746520494400000000000000000000000000600082015250565b6000612d6f601383612534565b9150612d7a82612d39565b602082019050919050565b60006020820190508181036000830152612d9e81612d62565b9050919050565b60008190508160005260206000209050919050565b60006020601f8301049050919050565b600082821b905092915050565b600060088302612e077fffffffffffffffffffffffffffffffffffffffffffffffffffffffffffffffff82612dca565b612e118683612dca565b95508019841693508086168417925050509392505050565b6000819050919050565b6000612e4e612e49612e44846122e7565b612e29565b6122e7565b9050919050565b6000819050919050565b612e6883612e33565b612e7c612e7482612e55565b848454612dd7565b825550505050565b600090565b612e91612e84565b612e9c818484612e5f565b505050565b5b81811015612ec057612eb5600082612e89565b600181019050612ea2565b5050565b601f821115612f0557612ed681612da5565b612edf84612dba565b81016020851015612eee578190505b612f02612efa85612dba565b830182612ea1565b50505b505050565b600082821c905092915050565b6000612f2860001984600802612f0a565b1980831691505092915050565b6000612f418383612f17565b9150826002028217905092915050565b612f5a82612529565b67ffffffffffffffff811115612f7357612f72612640565b5b612f7d8254612d08565b612f88828285612ec4565b600060209050601f831160018114612fbb5760008415612fa9578287015190505b612fb38582612f35565b86555061301b565b601f198416612fc986612da5565b60005b82811015612ff157848901518255600182019150602085019450602081019050612fcc565b8683101561300e578489015161300a601f891682612f17565b8355505b6001600288020188555050505b505050505050565b7f4f6e6c79206f776e65722063616e2063616c6c20746869730000000000000000600082015250565b6000613059601883612534565b915061306482613023565b602082019050919050565b600060208201905081810360008301526130888161304c565b9050919050565b7f436c61696d206d75737420626520766572696669656420666972737400000000600082015250565b60006130c5601c83612534565b91506130d08261308f565b602082019050919050565b600060208201905081810360008301526130f4816130b8565b9050919050565b7f4e487b7100000000000000000000000000000000000000000000000000000000600052601160045260246000fd5b6000613135826122e7565b91507fffffffffffffffffffffffffffffffffffffffffffffffffffffffffffffffff8203613167576131666130fb565b5b600182019050919050565b6000606082019050818103600083015261318c8186612580565b905061319b60208301856122f1565b6131a860408301846122f1565b949350505050565b7f506f6c6963792074656d706c617465206973206e6f7420616374697665000000600082015250565b60006131e6601d83612534565b91506131f1826131b0565b602082019050919050565b60006020820190508181036000830152613215816131d9565b9050919050565b7f496e636f7272656374207072656d69756d20616d6f756e742073656e74000000600082015250565b6000613252601d83612534565b915061325d8261321c565b602082019050919050565b6000602082019050818103600083015261328181613245565b9050919050565b6000613293826122e7565b915061329e836122e7565b92508282019050808211156132b6576132b56130fb565b5b92915050565b7f5061796f7574206e6f742070656e64696e670000000000000000000000000000600082015250565b60006132f2601283612534565b91506132fd826132bc565b602082019050919050565b60006020820190508181036000830152613321816132e5565b9050919050565b7f496e73756666696369656e7420636f6e74726163742062616c616e6365000000600082015250565b600061335e601d83612534565b915061336982613328565b602082019050919050565b6000602082019050818103600083015261338d81613351565b9050919050565b600081905092915050565b50565b60006133af600083613394565b91506133ba8261339f565b600082019050919050565b60006133d0826133a2565b9150819050919050565b7f5472616e73666572206661696c65640000000000000000000000000000000000600082015250565b6000613410600f83612534565b915061341b826133da565b602082019050919050565b6000602082019050818103600083015261343f81613403565b9050919050565b7f436c61696d206e6f742070656e64696e6720766572696669636174696f6e0000600082015250565b600061347c601e83612534565b915061348782613446565b602082019050919050565b600060208201905081810360008301526134ab8161346f565b9050919050565b7f496e76616c6964207573657220706f6c69637920494400000000000000000000600082015250565b60006134e8601683612534565b91506134f3826134b2565b602082019050919050565b60006020820190508181036000830152613517816134db565b9050919050565b7f4e6f742074686520706f6c696379686f6c646572000000000000000000000000600082015250565b6000613554601483612534565b915061355f8261351e565b602082019050919050565b6000602082019050818103600083015261358381613547565b9050919050565b7f506f6c696379206973206e6f7420616374697665000000000000000000000000600082015250565b60006135c0601483612534565b91506135cb8261358a565b602082019050919050565b600060208201905081810360008301526135ef816135b3565b9050919050565b7f506f6c6963792065787069726564000000000000000000000000000000000000600082015250565b600061362c600e83612534565b9150613637826135f6565b602082019050919050565b6000602082019050818103600083015261365b8161361f565b9050919050565b7f436c61696d20636f6f6c646f776e206163746976653a20506f737369626c652060008201527f6672617564000000000000000000000000000000000000000000000000000000602082015250565b60006136be602583612534565b91506136c982613662565b604082019050919050565b600060208201905081810360008301526136ed816136b1565b905091905056fea2646970667358221220619329759f16c668554c6df127d11315f60f364e5f024aa8293ce65cee96dffa64736f6c634300081c0033",
  "linkReferences": {},
  "deployedLinkReferences": {}
}